:020000041000EA
:1000000000B5324B212058609868022188439860DF
:10001000D860186158612E4B002199600221596106
:100020000121F02299502B49196001219960352056
:1000300000F044F80222904214D00621196600F024
:1000400034F8196E01211966002018661A6600F04E
:100050002CF8196E196E196E052000F02FF8012189
:100060000842F9D1002199601B49196000215960AB
:100070001A491B48016001219960EB211966A021F2
:10008000196600F012F800219960164914480160C1
:100090000121996001BC002800D000471248134993
:1000A000086003C880F30888084703B5996A0420EC
:1000B0000142FBD001200142F8D103BD02B5186610
:1000C0001866FFF7F2FF186E186E02BD00000240BE
:1000D000000000180000070000035F00212200005C
:1000E000F4000018222000A00001001008ED00E03C
:1000F00000000000000000000000000074B24E7A12
:1001000000200420F7010010C3010010C5010010F9
:10011000C1010010C1010010C1010010C101001097
:10012000C1010010C1010010C1010010C701001081
:10013000C1010010C1010010C9010010CB01001065
:10014000CD010010CD010010CD010010CD01001037
:10015000CD010010CD010010CD010010CD01001027
:10016000CD010010CD010010CD010010CD01001017
:10017000CD010010CD010010CD010010CD01001007
:10018000CD010010CD010010CD010010CD010010F7
:10019000CD010010CD010010CD010010CD010010E7
:1001A000CD010010CD010010CD010010CD010010D7
:1001B000CD010010CD010010CD010010CD010010C7
:1001C00000BE00BE00BE00BE00BE00BEEFF3058054
:1001D000103800BEF2EB8871D42D0510F42D0510F7
:1001E0003402001090A31AE700201F49086006C8D7
:1001F00081F3088810471D48006800282FD10DA4FE
:100200000ECC002902D000F012F8F9E71849194A7B
:10021000002000E001C19142FCD1174988471749ED
:1002200088471749884700BEFDE701C901C29A42C5
:10023000FBD37047F42D0510C0000020782C00205F
:10024000AC5905100000042000000420AC59051032
:10025000001004200010042000000000704709482E
:100260000CF020FB0047000008ED00E0000000D08B
:10027000802C00200C58032099B00010550300106A
:10028000CDB100105756000006005250ABB360537A
:10029000A889041006005250861C0302B889041075
:1002A000060052505422A29DC489041005005250E9
:1002B000DE65F468AC590510F8B5C0460448054B36
:1002C00010B5834203D0044B002B00D0984710BDDB
:1002D000782C0020782C00200000000006480749F8
:1002E000091A8B10C90FC91810B5491003D0044B57
:1002F000002B00D0984710BD782C0020782C0020CF
:100300000000000010B5074C2378002B09D1FFF73F
:10031000D5FF054B002B02D0044800E000BF0123AD
:10032000237010BDC83000200000000018850410A4
:10033000054B10B5002B03D00449054800E000BF71
:10034000FFF7CCFF10BDC04600000000CC300020FD
:100350001885041070B5192009F06CFAD02380229A
:100360001B0692045A620DF079FE00F045F806F083
:10037000A1FD08F0D5F806F0E3FF00220524144B98
:100380001A7006F0B5F9134D013C210028000DF05C
:1003900059FEFA2080000AF05DF8002CF4D10A2002
:1003A0000DF0B0FC012200210B4809F01BFD0B48A9
:1003B00010F004F801220A4B0A4C1A702378012B22
:1003C000FCD108F069FA2378012BFAD0F6E7C04691
:1003D000F457032018850410805703203D8C00102B
:1003E000F3570320F757032010B5024810F00EFB17
:1003F00010BDC0467C380320092370B586B0059334
:1004000004330493023B0393013B0293023B324DBE
:10041000324C0193324B22003249334800932B0077
:1004200005F024FE142005F01DFEFA2080000AF0DD
:1004300011F82E4E21003200280006F02FF83378F4
:10044000682B08D02A4C20000DF0A8FCFA20800070
:100450000AF000F8F7E773783D2BF3D10122210071
:10046000280006F03FF8234E32002100280006F055
:1004700073F83378002BF7D101222100280005F012
:10048000EFFE0121200005F0CDFE0321200005F044
:100490005FFE0321280005F089FF1321200006F0EC
:1004A000C9F81221200006F003F90021200006F00F
:1004B000E1F80321200006F06BF80221200006F08D
:1004C00083F85521200005F061FE1821280005F071
:1004D00007FF06B070BDC046682003204C320020E4
:1004E00040420F009C20002094200020E857032069
:1004F0002C85041006580320F0B5C646334C344D05
:10050000344E22002900300000B505F0D9FF637891
:10051000DB439B0720D023781B0702D480BCB8465E
:10052000F0BD2D4C0622002120000DF0B9FA21006B
:10053000300005F095FF0023E05E05F0FFFD274D3C
:1005400028600223E05E05F0F9FD68600423E05EA8
:1005500005F0F4FDA860E1E7214B0622984618005B
:1005600000210DF09DFA1F4F0622002138000DF0EA
:1005700097FA4146280005F055FF3900280005F09C
:1005800033FF43460020185E05F0C4FD4346164D78
:1005900028600220185E05F0BDFD43466860042017
:1005A000185E05F0B7FDA8600023F85E05F0BCFDFD
:1005B0000E4D28600223F85E05F0B6FD6860042346
:1005C000F85E05F0B1FDA860A5E7C046944D032094
:1005D0004C32002068200320583E0320E0420320D4
:1005E000483E0320503E0320EC3C0320083D0320FE
:1005F000F0B55746DE464E464546E0B58BB008910D
:100600009246190005900993DA1703238C4613408C
:1006100063449B109B009846002B00DC90E0524600
:10062000159B00249B000193149B9B1A159A9B1AFF
:10063000089A9B000293536812681901944604912A
:10064000069251469A00039252468D000021013ACB
:1006500092000792002289465900DE00CB189B00C9
:100660009B461300424665440092019A94469C447E
:10067000039B1A199F195346002B1EDD069B0598F4
:1006800019196346804600989B00434480460094B5
:10069000086818600098081A845804315C6084590E
:1006A0009C60C059D86010338D42F1D14346079900
:1006B000009363468C4604339C440421029B5A44B5
:1006C00063448C461400049A3E00E1449446009A28
:1006D0005E4465444A45C8DC1A00009B9846099B65
:1006E000434526DD1499159C089B0D1B514609CBEB
:1006F0006D1A00291DDD41469E004B439B00C0182A
:1007000053469C00059B47469C46099BAB46984632
:10071000159B994600234A4491006144C558CD5029
:1007200004339C42FAD1524401375A448019B845E7
:10073000F0D10BB0F0BCBB46B246A946A046F0BD16
:100740000022CCE7F0B54746CE4680B51F00002B0F
:100750001DDD002A1BDD9300C0180B68002498469D
:100760004B689100D200494252428C4691469B0010
:10077000614645182900A20042441668D21840C1BB
:100780008142FAD14A460134A81AA742F0D1C0BC2E
:10079000B946B046F0BDC046F0B5DE4657464E46B7
:1007A00045460023E0B51360836887B09A460592FA
:1007B00000230268052693460093013B03900291B3
:1007C0000493052355469B1B98465D435B46002BCF
:1007D00000D18DE14544AD005D442B685C006B6841
:1007E00064085F007F08391C381C0DF022F80028CF
:1007F00000D0DFE0211C381C0DF016F8002800D0D6
:10080000DFE00027731C9A46022B53D9AB685B00CC
:100810005B08191C181C99460DF00BF8002800D035
:1008200046E14846211C0CF0FFFF002801D04C4651
:1008300002275346032B3DD0EB685B005B08191C75
:10084000181C99460CF0F5FF002800D038E1484606
:10085000211C0CF0E9FF002801D04C460327534629
:10086000042B27D02B695B005B08191C181C9946C8
:100870000CF0DFFF002800D02AE14946201C0CF0D4
:10088000C5FF002801D04C4604275346052B11D044
:100890006D696D006D08291C281C0CF0CAFF00282A
:1008A00000D01DE1291C201C0CF0B0FF002801D055
:1008B00005272C1C029B009A474400219F50201CB6
:1008C0000CF09CFF002800D17EE0049B013300D196
:1008D000E3E006239B1B45460193039B9B689A46D6
:1008E0005D4306239F1B53469B009946019B52463E
:1008F0001C005443009A7F199446A50065449C4609
:100900000023BF005F44B8461F006444A4005D4458
:100910005C444346286819680CF041FF011C2068BC
:100920000CF023FF2060012E2DD94346286859681A
:100930000CF035FF011C60680CF017FF6060022EA0
:1009400021D04346296898680CF029FF011CA06853
:100950000CF00BFFA060032E15D043462968D86821
:100960000CF01DFF011CE0680CF0FFFEE060052E9E
:1009700009D14346296818690CF011FF011C206950
:100980000CF0F3FE206101374D444C44BE42C0D10F
:10099000009B013E04330093019B052B00D010E720
:1009A0001A00029B5A6107B0F0BCBB46B246A9468A
:1009B000A046F0BD211C201C0CF03BFF002800D0FD
:1009C00018E73C1C01271DE7474530D059465C46D7
:1009D0000098BB005B4409581D68039A9268255033
:1009E000196001009200594489189B1808681C6816
:1009F0000C60186089189B1808681C680C601860E7
:100A000089189B1808681C680C60186089189B1866
:100A100008681C680C60186089189B1818680A68B8
:100A200008601A60059A1368019301331360454604
:100A3000039B5A469B685D439A4606239B1B019382
:100A4000EC1843465B199B009F58A4005C44206847
:100A5000391C0CF090FE2060012E00D841E7606840
:100A6000391C0CF088FE6060022E00D139E7A068C6
:100A7000391C0CF080FEA060032E00D131E7E06845
:100A8000391C0CF078FEE060042E00D129E72069C3
:100A9000391C0CF070FE206123E7062345469B1BA2
:100AA0000193039B9B689A465D434346049318E772
:100AB000211C201C0CF0BDFE002800D1B7E6B0E6DA
:100AC000211C201C0CF0B5FE002800D1C5E6BEE6B6
:100AD000211C201C0CF0ADFE002800D1D3E6CCE692
:100AE000211C201C0CF0A5FE002800D1E0E6D9E670
:100AF0001B68FFDEF0B55746DE464E464546E0B57C
:100B000099B01493249B8246259C26985D1C00D1A5
:100B1000229B651C00D1229C239DEE1703253540A6
:100B2000239EB4466544AD10AF000725229E0E9764
:100B3000AE4335000096149E002E00DC88E29B0038
:100B40001693230110930301D31817936B1EDB0830
:100B500001330391D9015B010F93A3007C4320185B
:100B600080001193131815930023D3461391089313
:100B70000E9B002B00DCC2E10F9A039B944663445A
:100B80001293179BD8460193002302930298434681
:100B900001000CCB089C5943A446614489005118BC
:100BA0000991411C59436144890051180A91811CE3
:100BB00059436144890051180B91C11C4B43634454
:100BC0009B00D318019E0C93009B3400002B00DC8B
:100BD00045E2039B0025994600234C46AA46AB46B6
:100BE000A946069504952F1C059507950D93256834
:100BF0003168281C0CF0D3FD59460CF0B9FD716822
:100C00008346281C0CF0CBFD51460CF0B1FDB168B9
:100C10008246281C0CF0C3FD07990CF0A9FDF16871
:100C20000790281C0CF0BBFD05990CF0A1FD059068
:100C300065683169281C0CF0B2FD391C0CF098FD78
:100C40007169071C281C0CF0AAFD04990CF090FD9A
:100C5000B1690490281C0CF0A2FD06990CF088FDE7
:100C6000F1690690281C0CF09AFD49460CF080FDB5
:100C70008146A568316A281C0CF091FD59460CF09C
:100C800077FD716A8346281C0CF089FD51460CF0F3
:100C90006FFDB16A8246281C0CF081FD07990CF0AB
:100CA00067FDF16A0790281C0CF079FD05990CF09E
:100CB0005FFD0590E568316B281C0CF070FD391C58
:100CC0000CF056FD716B071C281C0CF068FD049994
:100CD0000CF04EFDB16B0490281C0CF060FD0699E1
:100CE0000CF046FDF16B0690281C0CF058FD4946AF
:100CF0000CF03EFD81462569316C281C0CF04FFD3F
:100D000059460CF035FD716C8346281C0CF047FDEC
:100D100051460CF02DFDB16C8246281C0CF03FFDB5
:100D200007990CF025FDF16C0790281C0CF037FD9D
:100D300005990CF01DFD05906569316D281C0CF0BE
:100D40002EFD391C0CF014FD716D071C281C0CF0D5
:100D500026FD04990CF00CFDB16D0490281C0CF0DC
:100D60001EFD06990CF004FDF16D0690281C0CF098
:100D700016FD49460CF0FCFC8146A569316E281C25
:100D80000CF00DFD59460CF0F3FC716E8346281CE7
:100D90000CF005FD51460CF0EBFCB16E8246281CB0
:100DA0000CF0FDFC07990CF0E3FCF16E0790281C99
:100DB0000CF0F5FC05990CF0DBFC0590E569316F52
:100DC000281C0CF0ECFC391C0CF0D2FC716F071CD9
:100DD000281C0CF0E4FC04990CF0CAFCB16F0490E0
:100DE000281C0CF0DCFC06990CF0C2FCF16F06909C
:100DF000281C0CF0D4FC49460CF0BAFC8146803625
:100E000020340D9B009A08330D939A4200DDEEE6E4
:100E1000139B019C9C46051C5946381C64440CF0ED
:100E2000A7FC5146071C04980CF0A2FC0799061C6D
:100E300006980CF09DFC05998146281C0CF098FC46
:100E4000129B051C9A46229A009B9A4230DDAB46C3
:100E50000493534620CB2168281C9A460CF09FFC33
:100E6000011C381C0CF084FC6168071C281C0CF069
:100E700096FC011C301C0CF07BFCA168061C281C95
:100E80000CF08DFC011C48460CF072FCE1688146B8
:100E9000281C0CF084FC011C58460CF069FC8346AD
:100EA000049B229A0133103404939A42D1D1051C39
:100EB000311C0A9E30680CF058FC391C099F041C38
:100EC00038680CF052FC291C0C9D3860346028688E
:100ED0000CF04BFC0B9E4946041C30680CF045FCA2
:100EE0001099019A8C46029B624401920E9A043337
:100EF000306002932C609A4200DD47E6C3460F9AA9
:100F0000039B944663440E9A0293239B9246159D3D
:100F1000934200DC90E05B465C6853465C43089B70
:100F20002F009C465B461B6864449C46009BA400C3
:100F30006444002B00DC99E00023039F99463B00AA
:100F4000A04600262F001C00396820680CF027FC02
:100F5000311C0CF00DFC061C796860680CF01FFC5D
:100F6000311C0CF005FC061CB968A0680CF017FCDD
:100F7000311C0CF0FDFB061CF968E0680CF00FFC5E
:100F8000311C0CF0F5FB061C396920690CF007FCDC
:100F9000311C0CF0EDFB061C796960690CF0FFFB5D
:100FA000311C0CF0E5FB061CB969A0690CF0F7FBDD
:100FB000311C0CF0DDFB061CF969E0690CF0EFFB5D
:100FC000311C0CF0D5FB061C2037203408239C462E
:100FD000009BE1444B45B7DC44460F9BEF18029B56
:100FE0000193229A009B9A4217DD99460023984666
:100FF00043464246F958019B98580CF0D0FB011C1F
:10100000301C0CF0B5FB061C01239C460333E14465
:101010009C46229BE0444B45EAD12068311C0CF0F1
:10102000A4FB01239C46119BE2449C46239B206029
:101030006544534500D06EE71699039A8C46089B89
:1010400062440392149A013308939A4200D08FE5C8
:1010500019B0F0BCBB46B246A946A046F0BD00257B
:10106000039BA9469A462E1C2F1CECE6039B0026E8
:101070000193B6E7F0B557464E46DE464546802416
:10108000E0B5B5B006AF3C19206094207B63E8233F
:10109000AE4E38180160BA63FB181C683378BFF392
:1010A0005B8FDB0700D477E2A94D90222369BA1841
:1010B00013608422A368BA1813608022BA181268D9
:1010C0006D68934202DD8423FB181A609421842307
:1010D000902279180E688C21FB18BA1812681B68C8
:1010E00056435343226879180A60002A00D180E2EF
:1010F0009B003B660023BB6763687B67002B00D1C6
:1011000063E2B300FB6500233B6798220423BA180F
:1011100013609033FB181B68002B19DD8023E42239
:10112000FB18BA181B6812681900934200DA4AE2E9
:10113000280009010BF010FC0323C217134098226A
:101140001B189B109B00BA181360042B00DA35E2C1
:101150008023FB181968002900DCA9E190207B6B33
:1011600038181A000068796484464243091A3A61C3
:101170006244B9647A609821E4227918BA18126836
:1011800009684A43BA619A007A610432FA61A0227E
:1011900001339B00BA181360E423FB181B689B0003
:1011A0009B460023FB63FB643B64BB669C227B6C19
:1011B000BA1813609022BA181268934202DD9C2379
:1011C000FB181A609423FB181B68002B00DC47E116
:1011D0009C23FB181A68002A00DC41E19423E021DB
:1011E000FB181B687918BB6598230968FB188C46A7
:1011F0001B68B86E53439B00BB607B6F1100FB679D
:1012000083006344FB6000238C46FB66FB620B009B
:10121000B021791839630321013B043A8B436044C0
:10122000D31A38603B629822BA18BB6D12689A468E
:10123000934200DD9246FA68FB6E94469B0063443D
:101240007B66FB6B88227B65FB6CBA183B659C2335
:10125000FB181B6813609C23FB181A688823FB1873
:101260001B68D21ABA62A422BA181360042B03DDD9
:10127000A4220423BA1813608823FB183A681B6859
:10128000D21A7A62002B65DDA423BA6BFB18914653
:10129000A8221B68BA18013B98467B6D9B009944B5
:1012A0007B6E1360AC220023BA181360AC23AC220F
:1012B000FB181B68BA18013313604346002B2CDD62
:1012C000A8230025FB181C684B4626685968301C6B
:1012D0000CF065FA011C60680CF047FA4346606048
:1012E000012B16D04B46301C99680CF058FA011CA3
:1012F000A0680CF03AFA4346A060022B09D04B4696
:10130000301CD9680CF04BFA011CE0680CF02DFA87
:10131000E06001355C445545D6D101235B429C46D3
:10132000A133FB181B68E0449C46A823A822FB18A5
:101330001B68BA1804331360AC23A422FB18BA1834
:101340001B681268E1449342B0DB03E0CC22032027
:101350008C3803208823A422FB18BA181B68126853
:10136000396B9D1A7B6EBE6A0B60E423FB181B6809
:1013700091464B609C230196FB181B68884600939E
:10138000F86F5346FFF734F9002D37DD41467C6A8C
:10139000386D4C440319B86B4A468446786B9B0001
:1013A0004860A420381802608C2038180068634414
:1013B0000B602B0081463963FFF7C4F9E022FB6E16
:1013C000BA181B1914689B00A0463C6B4344236069
:1013D000E423FB1819689C236160FB1804961B68C2
:1013E00049460393A423FB181A68534602920193BB
:1013F00000922B002000FA6FFFF77CFB88238822E5
:101400007969FB188C461B68BA18043BF9691360AC
:101410003A6D62448C463A657A6E10327A667A6D1D
:1014200062447A653A6A9A4200D014E79822BA1860
:101430001268B96D9446FB6A8A1AB96963448C468E
:10144000BA65B968FA6EFB6262448C46FA66FA6F56
:101450006244FA679422BA1812689A4200DDE2E602
:101460009022BA181268BB6E94468022BA1812688D
:101470006344BB6693421BDA8423FB181B68002B72
:1014800038DC90233969FB188C467A6C1B68D21AB9
:101490007A643A6C62443A64BA6CD31ABB647A6870
:1014A000FB6C63449446FB64FB6B6344FB637DE627
:1014B0008023FA6D9B029A4207D93A6F002A04D022
:1014C000531E1878101A0CF0D3FA80233A6E9B0240
:1014D0009A4207D9BA6F002A04D0531E1878101AFE
:1014E0000CF0C6FABD462FB0F0BCBB46B246A946CA
:1014F000A046F0BDBA6B3B6C92469B009A44B02369
:10150000FE18B13B9946BD6CBC6E8423FB181B686A
:10151000A8469D4200DD9846AC22A300BA1813608D
:101520007A6B8C2072609C225344BA1838183100B0
:101530001268006833604346FFF704F9E022AC23E9
:10154000BA181268FB1894461B688C2163443360F8
:10155000E423FB181B6879187360002304934B463F
:10156000039302939423FB181B68300001939C2380
:10157000FB181B6800937A6F43460968FFF7BAFAB5
:101580008423FB181B689C46ED1A8023FB181B68FC
:101590006444A342B9DC74E730000EF035FF364DE9
:1015A000002800D181E58023DB012B6080231B0311
:1015B00030006B60AB600EF043FF76E598220423A9
:1015C000BA181360C4E51100B2E58023B200FA65D1
:1015D0009B029A423AD813006A461633DB08DB00B6
:1015E000D31A9D4627200F236844984338677867AD
:1015F0008BE59A0080233A669B029A420FD813002B
:101600006A461633DB08DB00D31A9D4627200F23DA
:10161000684498437D33FB18B86718606CE5100088
:1016200010300CF007FAB867002800D164E50F22EB
:101630001023844602409B1ADBB29C4461464A1E3A
:1016400013708C23FB18B967196055E51000103032
:101650000CF0F0F93867002800D156E50F2210236E
:10166000844602409B1ADBB29C4461464A1E39679D
:101670001370796749E5C0468C380320F0B55746AA
:101680004E46DE464546E0B5B7B006AF82468420FA
:101690007B65F023CB4E38180160BA63FB181C68D9
:1016A0003378BFF35B8FDB0700D49DE2C64D23691F
:1016B0006D683B67A368BB67534501DD5346BB6755
:1016C000842179180E6880213A6FBB6F56435343CB
:1016D000226879180A60002A00D1B4E29B003B65B9
:1016E0000023FB666368BB66002B00D197E2B30062
:1016F000FB6400237B6688220423BA1813608033BE
:10170000FB181B68002B16DDEC23FB181B685146E9
:101710009A4500DA7FE2280009010BF01DF9032346
:10172000C217134088221B189B109B00BA18136025
:10173000042B00DA6AE25346002B00DC32E27A6DB9
:10174000386F1100434259430B00B96251460C1ADD
:10175000110062431B1A9B00BA647B600A000B00F5
:1017600051464B43B96B53448C46E8219B0063447C
:10177000FB637918830009685B423B6053468C46E3
:101780009B006344EC21BB6588237918FB1809682A
:101790001B687C674B4390213B6193005B42791847
:1017A0000B60043BBB609B00FB60D34394229B0017
:1017B000BA181360EC23A822FB181B68BA189B0008
:1017C0001360544603008C22BA181360A34200DD54
:1017D00014608423FB181B68002B00DC76E18C234B
:1017E000FB181A68002A00DC70E18423FB181B68D0
:1017F000B96D7B648823FB181B6853439B00FB6116
:10180000BB6EFB659300CB1A3B620023B8213B669D
:101810007B63A31A7918FB62130039630321013B30
:10182000043A8B43D31A7B61AC227B6CBA181360E9
:101830008822BA181268934202DDAC23FB181A60A2
:101840003A6A3B6E94469B009C4462467A62BA6D4B
:10185000944698226344BA181360FB6B3B648C2354
:10186000FB181B68FB679C22FB6FBA181360042BE4
:1018700003DD9C220423BA181360FA6FFB6A9446B6
:101880006344BB61002A00DCA0E09C23396CA020EB
:101890008A46FB181B6838185A1E9346BA685B4282
:1018A000524402607A6D9B1A9B009A440423A4223E
:1018B0005B4299460023BA181360A023FE20FB1850
:1018C0001B68800519680BF056FFB423FB181860DD
:1018D000A423FB181B685A46DB439B1A9822BA18AC
:1018E000126800269446B0229C009B005B42BA1806
:1018F00064441360B023FB181B684A469846A04412
:1019000043469958B423FB1818680BF048FF434628
:101910004A4698505B46051C002B22DD5346196849
:101920000BF03DFF011C20680BF01FFF5B462060A1
:10193000012B16D05346281C59680BF030FF011CB0
:1019400060680BF012FF5B466060022B09D05346C3
:10195000281C99680BF023FF011CA0680BF005FF01
:10196000A060A823FB181B6801369C46AC23FB181B
:101970001B6864449E42BDD1A423A422FB181B68AB
:10198000BA18013313600122942152429446791807
:101990000968E3448C46A021A132BA18126879186C
:1019A00062440A600422524294469432BA18126881
:1019B000E14494469C22BA181268E244934200DA49
:1019C0007BE703E0CC2203208C380320E8219C2213
:1019D00079180968BA188C46FB6F1268396B9C1A23
:1019E000BB699D1A3B6E5B199B0063440B60EC2343
:1019F000FB181B684B608C230194FB181B68009339
:101A0000AC23FB181B68F86DFEF7F2FD002C30DDEF
:101A10007A6DF96A13008C466B433D6BB96B80207D
:101A20006A609C2263448C46381806689B00BA188A
:101A30001268634429002B60300023009046FEF7B3
:101A400081FEEC2228008C237D6ABA180560156897
:101A5000FB18456004941D68AC224346039502932D
:101A6000BA1812680093019223003100FA6DFFF753
:101A700041F898229821BA1812687918103A0A6029
:101A8000F9683A6C8C46FB6F62443A647A69043BAD
:101A9000FB679A4200D0E6E68822BA181268796C91
:101AA00094467B6B8A1AF96963448C467A64396977
:101AB000FA6D7B6362448C46FA653A6E62443A661C
:101AC0008422BA1812689A4200DDADE67B6F1C1EB4
:101AD00068DDBB6F002B00DCFEE7BA6BBB6C934686
:101AE0009B009B4400239946B833FE18B93B9A46A5
:101AF00023004C4699467D6FBB6FA8469D4200DD92
:101B00009846B422A300BA1813607A6D80207260E0
:101B10008C225B44BA1838183100126800683360B0
:101B20004346FEF70FFEE822B423BA181268FB18EA
:101B300094461B68802163443360EC23FB181B68C8
:101B4000791873600023049353460393029384230C
:101B5000FB181B68300001938C23FB181B68009353
:101B6000BA6E43460968FEF7C5FFBB6F9C46ED1A87
:101B70007B6F6444A342BFDCBA6ABB6C94467A684C
:101B800063449446BB643A68FB6B4C46634494469A
:101B9000FB63BB6D3A6F6344BB657B6F9B1A7B67CE
:101BA000130010E68023FA6C9B029A4207D97A6EE2
:101BB000002A04D0531E1878101A0BF059FF802306
:101BC0003A6D9B029A4207D9FA6E002A04D0531E3E
:101BD0001878101A0BF04CFFBD4631B0F0BCBB4674
:101BE000B246A946A046F0BD30000EF00DFC374DC0
:101BF000002800D15BE58023DB012B6080231B03E1
:101C000030006B60AB600EF01BFC50E588220423B3
:101C1000BA1813608FE5EC23FB1819687BE5802365
:101C2000B200FA649B029A423AD813006A4616330D
:101C3000DB08DB00D31A9D4627200F236844984316
:101C40007866B86657E59A0080233A659B029A4207
:101C50000FD813006A461633DB08DB00D31A9D4603
:101C600027200F23684498437133FB18F8661860E7
:101C700038E5100010300BF0DDFEF866002800D1CA
:101C800030E50F221023844602409B1ADBB29C44AD
:101C900061464A1E13708023FB18F966196021E51E
:101CA000100010300BF0C6FE7866002800D122E547
:101CB0000F221023844602409B1ADBB29C446146EB
:101CC0004A1E79661370B96615E5C0468C38032044
:101CD00030B587B00D4B02AD00951A686946029287
:101CE0009A880400AA809B796A46AB710723019306
:101CF0000023D3732BF01AFB0098A84203D002995B
:101D000001310BF0E9FE200007B030BD4085041022
:101D1000F0B5DE4657464E464546E0B50E00016832
:101D2000C7688946416805698A4681688DB08B46D7
:101D3000416980690793069050681368926805911D
:101D40000A90291C30680B92099308950BF00DFD41
:101D50000599039070680BF008FD0699051CB068A2
:101D60000BF003FD80268046360607980BF09AFD9F
:101D7000B446039B009001916344180051460BF058
:101D80000EFD5946061C281C0BF009FD011C301CD9
:101D90000BF0EBFC391C061C404604970BF0FFFCD3
:101DA000011C301C0BF0E1FC0BF07CFD0022684BA9
:101DB0000BF03DF8009A019B0BF039F806004846FD
:101DC0000F000BF06FFD02000B0030003900169C75
:101DD0000BF006F80BF024F94946206003980BF04D
:101DE000DEFC5946061C40460BF0D9FC011C301C99
:101DF0000BF0BEFC0499061C281C0BF0D0FC011C47
:101E0000301C0BF0B2FC0BF04DFD0022504B0BF0E0
:101E10000EF8009A019B0BF00AF8060050460F00DE
:101E20000BF040FD02000B00300039000AF0D8FF33
:101E30000BF0F6F849466060281C0BF0B0FC5146E8
:101E4000061C40460BF0ABFC011C301C0BF08DFC5B
:101E50000499061C03980BF0A2FC011C301C0BF02B
:101E600087FC0BF01FFD0022394B0AF0E0FF009ABF
:101E7000019B0AF0DCFF060058460F000BF012FD34
:101E800002000B00300039000AF0AAFF0BF0C8F87E
:101E90004946A06040460BF082FC5146061C281CB7
:101EA0000BF07DFC011C301C0BF062FC5946051C3C
:101EB00003980BF074FC011C281C0BF056FC0BF073
:101EC000F1FC0022224B0AF0B2FF009A019B0AF0BB
:101ED000AEFF060004980F000BF0E4FC02000B00BC
:101EE000300039000AF07CFF0BF09AF8089B099942
:101EF000E060181C98460BF052FC079D291C0BF063
:101F00004EFC011C40460BF030FC059F0A992061F5
:101F1000381C0BF044FC291C0BF041FC011C381C44
:101F20000BF023FC069E0B996061301C0BF037FC14
:101F3000291C0BF034FC011C301C0BF016FCA061BA
:101F400000200DB0F0BCBB46B246A946A046F0BD8D
:101F50000000E03FF0B5DE4657464E4645468A460D
:101F60004168E0B58846C768816891B006688946CF
:101F70004046391C141C04930BF011FC4946051C07
:101F8000301C0BF00CFC0A90011C281C09950BF06E
:101F9000ECFB0BF087FC02000B000AF021FF06901F
:101FA0000791201C02940BF07DFC0B000200040042
:101FB0000D00069807990AF03AFF0BF031F85246E7
:101FC000391C106048460BF0EAFB83464146301C42
:101FD0000BF0E5FB5A460E90011C58460B920BF095
:101FE000C7FB0BF05FFC02000B000AF0F9FE0200D9
:101FF0000B00200029000C920D930AF018FF0BF043
:102000000FF85446311C6060301C0BF0C8FB414691
:10201000041C40460BF0C3FB051C011C201C0BF0EC
:10202000A4FB4946089048460BF0B9FB391C83468F
:10203000381C0BF0B4FB5946019008980BF095FB47
:1020400001990BF095FB02990F900BF0A8FB5346FA
:102050004946986040460BF0A2FB391C8046301C74
:102060000BF09DFB81461A980BF01CFC06001B9898
:102070000F000BF017FC02900391291C201C0BF0A1
:1020800077FB59460BF071FB01990BF06EFB04993D
:102090000BF085FB0BF006FC04000D0040464946A2
:1020A0000BF066FB0BF0FEFB02000B000AF098FE43
:1020B00032003B000AF0BBFE02000B0020002900AA
:1020C0000AF08EFE029A039B04000D000698079901
:1020D0000AF0ADFE02000B00200029000AF080FE8D
:1020E0000AF09EFF5346D86004980BF0DBFB040017
:1020F0000D00404649460BF038FB0BF0D3FB0200C5
:102100000B000AF06DFE22002B00049405950AF0E6
:102110008EFE04000D00089859460BF029FB01992A
:102120000BF023FB1A990BF03AFB0BF0BBFB020000
:102130000B00200029000AF053FE029A039B0400C2
:102140000D000C980D990AF072FE02000B002000A1
:1021500029000AF045FE0AF063FF53460A99186108
:1021600009980BF005FB0BF09DFB02000B000AF039
:1021700037FE049A059B0AF05AFE04000D000B98E6
:102180000E990BF0F2FA0BF08DFB02000B000AF037
:1021900027FE32003B000AF04AFE02000B0020003E
:1021A00029000AF01DFE04000D000F981B990BF08A
:1021B000F6FA0BF077FB02000B00200029000AF072
:1021C0000FFE0AF02DFF53465861002011B0F0BCFD
:1021D000BB46B246A946A046F0BDC046F0B50400D5
:1021E000DE4657464E4645460800E0B54568096854
:1021F000AA46856895B0AB46C5684669876910915F
:102200000E950169556810689268049690461A68A0
:10221000069711925A689B6812921393FE239B05AE
:10222000236099460BF0A1FA0BF03CFB0090019162
:102230001E980BF037FB06000F0000980199002252
:10224000924B0AF0F4FD32003B000AF0F0FD0AF078
:10225000E7FE04990390E061281C0BF086FA0BF06E
:1022600021FB0022894B049005910AF0E0FD320029
:102270003B000AF0DCFD0AF0D3FE0699051CA063C2
:1022800040460BF072FA0BF00DFB00227F4B0690DC
:1022900007910AF0CCFD32003B000AF0C8FD0AF0BD
:1022A000BFFE0A90606550460BF0FCFA0022784BA6
:1022B000089009910AF0BBFD32003B000AF0B7FD1F
:1022C0000AF0AEFE0B90206758460BF0EBFA0022A6
:1022D0006F4B0C900D910AF0AAFD32003B000AF002
:1022E000A6FD0AF09DFE8C238246E0500E980BF06E
:1022F000D9FA0022664B0E900F910AF098FD320039
:102300003B000AF094FD0AF08BFEA8238346E050C0
:102310000022009801995E4B0AF089FD32003B00D3
:102320000AF085FD0AF07CFE49460090606021625B
:10233000002206980799564B0AF079FD32003B00BF
:102340000AF075FD0AF06CFEA5658046E063109802
:102350000BF0A8FA00224D4B0AF069FD32003B0059
:102360000AF065FD0AF05CFE59469023051C606783
:102370000022E1500C980D99444B0AF058FD3200B0
:102380003B000AF054FD0AF04BFEAC230022E05063
:10239000049805993E4B0AF04AFD32003B000AF0D2
:1023A00046FD0AF03DFE49460A9A83466262009A5B
:1023B000A0602164E2650E980F990022334B0AF069
:1023C00036FD32003B000AF032FD0AF029FE94236C
:1023D0000B99A067E5501C33E1504146E160594636
:1023E000A162494621665146039BE16763640898F0
:1023F00009990022254B0AF01AFD32003B000AF031
:1024000016FD0AF00DFE9823E0501C33E550002520
:102410001E9911982561E562A56465660BF0BFF908
:10242000011C48460BF0A1F98023E0501C33E55015
:102430001C33E550343B1E99129865612563E564B1
:10244000A566E5500BF0ABF9011C48460BF08DF981
:10245000A023E0501C33E550343BA561656325653E
:10246000E566E5501C33E5501E9913980BF097F97B
:10247000011C48460BF079F9C023E050002015B04C
:10248000F0BCBB46B246A946A046F0BD0000E0BF86
:102490000000E03FF0B5DE4657464E464546E0B503
:1024A0009A460B68141C8A689B464B68C9688BB0B7
:1024B0000500101C8846009301920BF0F3F902907E
:1024C0000391201C0BF0EEF9C02306000F000298C8
:1024D000039900221B060AF0AAFC32003B000AF016
:1024E000A6FC0AF09DFD0890286040460BF0DAF942
:1024F00002000B000AF074FC32003B000AF097FC6B
:102500000AF08EFD041CA86158460BF0CBF9C023DD
:1025100000221B06049005910AF089FC32003B0062
:102520000AF085FC0AF07CFD286300980BF0BAF9EC
:1025300002000B00069007910AF052FC32003B00AB
:102540000AF075FC0AF06CFD002190238946A8640E
:102550002966A967E95068600498059902000B0094
:102560000AF03EFC32003B000AF061FC0AF058FD24
:102570006C630490E8610298039902000B000AF072
:102580002FFC32003B000AF052FC0AF049FD49469C
:102590009423E8646966E967E950C02306980799BF
:1025A000049A1B06AA6000220AF041FC32003B009C
:1025B0000AF03DFC0AF034FD089B4946AB638023DA
:1025C00028622C65A966E9501833E95040461499F1
:1025D0000BF0E5F8019F1599061C381C0BF0DFF88D
:1025E0005146041C58460BF0DAF8311C0BF0C0F8C9
:1025F000211C06940BF0B9F8011C0BF0B9F85146F8
:102600000990E86000980BF0CAF81499041C381C73
:102610000BF0C5F8011C201C0BF0AAF81599041C3E
:1026200040460BF0BCF8011C201C0BF0A1F8011C6B
:102630000BF09EF814990290686200980BF0AFF8C6
:102640001599089058460BF0AAF8019A80249446F0
:1026500024066444071C514620000BF0A0F808999A
:102660000BF086F8391C0BF080F8011C0BF080F899
:102670001499E86358460BF092F815990490009865
:102680000BF08DF8802212064244041C51461000C3
:102690000BF085F804990BF06BF8211C0BF068F82F
:1026A000011C0BF065F84A468423EA666865EA5027
:1026B0001833EA505146286101980BF070F80899D8
:1026C0000BF053F8391C0BF053F8011C0BF050F8C9
:1026D000071CA8628020029B00062B6451465844C8
:1026E0000BF05DF8311C0BF040F806990BF040F848
:1026F000011C0BF03DF88823A86548462867E85080
:102700001833E850514640466F610BF048F8049981
:102710000BF02BF8211C0BF028F8011C0BF028F80B
:10272000099AE8626A64029B4A46EB654B466B670E
:102730008C230020EA501833EA500BB0F0BCBB46A3
:10274000B246A946A046F0BD0123F0B5E3214746B5
:10275000CE469C46294B804605009946284E80B5BA
:102760008900076846444144FA0F6F68D2077B002E
:102770005B08346813435A08624064461C4201D027
:102780004B465A4004C50436A942EDD1E3234246E4
:102790009B00C626D458194B01259C46F60046449A
:1027A000E20F4C68D20763005B08076813435A08BE
:1027B0007A401D4201D063465A40043004C1B04201
:1027C000EED14246C62140460E4BC900D35812688E
:1027D000DB0F52005208DB07415813435A084A40A6
:1027E000DB0701D5054B5A404146064BCA50002233
:1027F0000433CA50C0BCB946B046F0BDDFB008993A
:1028000034060000BC090000F0B54546DE465746D8
:102810004E46E0B53C4CD723A54434AA94466344C5
:102820001B091B018A6805930B68019237921A688D
:1028300004902D929A6933912E921A6B38AC2F9294
:102840009A6C30921A6E06929A6F089290229A5859
:1028500007925A680A92DA690B925A6B0C92DA6CF8
:102860000D925A6E0E92DA6F0F9294229A5810922D
:102870009A6811921A6A12929A6B13921A6D1492B4
:102880009A6E159280229A58169298229A58179208
:10289000DA6818925A6A1992DA6B1A925A6D1B9278
:1028A000DA6E1C9284229A581D929C229A581E928B
:1028B0001A691F929A6A20921A6C21929A6D22923A
:1028C0001A6F239288229A582492A0229A5825920D
:1028D0005A692692DA6A27925A6C2892DA6D2992FE
:1028E0005A6F2A928C229A582B92A4229B582C938E
:1028F0004B68984638AB3293C4234344099343460C
:10290000A0461C0002E0C0469CFDFFFFE168A268F3
:1029100089462169236848460391309902920193C0
:102920000AF03DFF0399824606980AF038FF011C21
:1029300050460AF01DFF67698246391C08980AF064
:102940002EFFA6698346311C07980AF028FF011C58
:1029500058460AF00DFF011C50460AF009FF656851
:1029600082462E99281C0AF01AFF2F998346029856
:102970000AF015FF011C58460AF0FAFE2D9983460D
:1029800001980AF00CFF011C58460AF0F1FE011CE8
:1029900050460AF0EDFE4346494618600D980AF08D
:1029A000FEFE039982460E980AF0F9FE011C50467D
:1029B0000AF0DEFE391C82460F980AF0F0FE311C48
:1029C000834610980AF0EBFE011C58460AF0D0FE30
:1029D000011C50460AF0CCFE291C82460B980AF0D6
:1029E000DEFE029983460C980AF0D9FE011C584677
:1029F0000AF0BEFE019983460A980AF0D0FE011C37
:102A000058460AF0B5FE011C50460AF0B1FE434696
:102A10004946586014980AF0C2FE039982461598F8
:102A20000AF0BDFE011C50460AF0A2FE391C824687
:102A300016980AF0B4FE311C834617980AF0AFFED0
:102A4000011C58460AF094FE011C50460AF090FE04
:102A5000291C824612980AF0A2FE02998346139816
:102A60000AF09DFE011C58460AF082FE0199834639
:102A700011980AF094FE011C58460AF079FE011CD8
:102A800050460AF075FE4346494698601B980AF086
:102A900086FE039982461C980AF081FE011C50466E
:102AA0000AF066FE391C82461D980AF078FE311C39
:102AB00083461E980AF073FE011C58460AF058FE21
:102AC000011C50460AF054FE291C824619980AF04F
:102AD00066FE029983461A980AF061FE011C584668
:102AE0000AF046FE0199834618980AF058FE011C28
:102AF00058460AF03DFE011C50460AF039FE434696
:102B00004946D86022980AF04AFE039982462398E3
:102B10000AF045FE011C50460AF02AFE391C824686
:102B200024980AF03CFE311C834625980AF037FEB3
:102B3000011C58460AF01CFE011C50460AF018FE03
:102B4000291C824620980AF02AFE02998346219881
:102B50000AF025FE011C58460AF00AFE0199834638
:102B60001F980AF01CFE011C58460AF001FE011CC9
:102B700050460AF0FDFD43464946186129980AF07F
:102B80000EFE039981462A980AF009FE011C484668
:102B90000AF0EEFD391C81462B980AF000FE311C2C
:102BA000071C2C980AF0FBFD011C381C0AF0E0FD04
:102BB000011C48460AF0DCFD291C061C27980AF077
:102BC000EEFD0299051C28980AF0E9FD011C281C5D
:102BD0000AF0CEFD0199051C26980AF0E0FD011CC3
:102BE000281C0AF0C5FD011C301C0AF0C1FD43463B
:102BF000586118239C46099B1C34E044A34200D032
:102C000084E6379B1A68629308929A6909921A6B54
:102C10000A929A6C0B921A6E0C929A6F0D929022F5
:102C20009A580E925A680F92DA6910925A6B119262
:102C3000DA6C12925A6E1392DA6F149294229A58A6
:102C400015929A6816921A6A17929A6B18921A6DD0
:102C500019929A6E1A9280229A581B9298229A5828
:102C60001C92DA681D925A6A1E92DA6B1F925A6D94
:102C70002092DA6E219284229A5822929C229A58AB
:102C800023921A6924929A6A25921A6C26929A6D56
:102C9000059C27921A6F2034289288229A58A146C0
:102CA0002992A0229A582A925A692B92DA6A2C9277
:102CB0005A6C2D92DA6D2E925A6F2F928C229A585E
:102CC0003092A4229B5831935CAB06933EAB0793A2
:102CD000329B984643464246414640461B689569AA
:102CE0000193069B146B096E926C40CB876F029127
:102CF000101C0B99039206930AF051FD0C99824621
:102D000002980AF04CFD011C50460AF031FD0D9965
:102D10008246381C0AF043FD0E998346301C0AF0A7
:102D20003EFD011C58460AF023FD011C50460AF0E6
:102D30001FFD09998246281C0AF031FD0A99834635
:102D4000201C0AF02CFD011C58460AF011FD0899C0
:102D5000834601980AF023FD011C58460AF008FD3D
:102D6000011C50460AF004FD4B4612991860039866
:102D70000AF015FD1399824602980AF010FD011C15
:102D800050460AF0F5FC14998246381C0AF007FDFB
:102D900015998346301C0AF002FD011C58460AF0C2
:102DA000E7FC011C50460AF0E3FC10998246281CFF
:102DB0000AF0F5FC11998346201C0AF0F0FC011C76
:102DC00058460AF0D5FC0F99834601980AF0E7FCB3
:102DD000011C58460AF0CCFC011C50460AF0C8FC05
:102DE0004B461999586003980AF0D9FC1A99824603
:102DF00002980AF0D4FC011C50460AF0B9FC1B9959
:102E00008246381C0AF0CBFC1C998346301C0AF021
:102E1000C6FC011C58460AF0ABFC011C50460AF0E7
:102E2000A7FC17998246281C0AF0B9FC189983461A
:102E3000201C0AF0B4FC011C58460AF099FC1699B3
:102E4000834601980AF0ABFC011C58460AF090FC3E
:102E5000011C50460AF08CFC4B4620999860039860
:102E60000AF09DFC2199824602980AF098FC011C08
:102E700050460AF07DFC22998246381C0AF08FFCED
:102E800023998346301C0AF08AFC011C58460AF03C
:102E90006FFC011C50460AF06BFC1E998246281CF0
:102EA0000AF07DFC1F998346201C0AF078FC011C67
:102EB00058460AF05DFC1D99834601980AF06FFCA4
:102EC000011C58460AF054FC011C50460AF050FC04
:102ED0004B462799D86003980AF061FC28998246EE
:102EE00002980AF05CFC011C50460AF041FC29994A
:102EF0008246381C0AF053FC2A998346301C0AF09B
:102F00004EFC011C58460AF033FC011C50460AF0E6
:102F10002FFC25998246281C0AF041FC26998346FD
:102F2000201C0AF03CFC011C58460AF021FC2499A4
:102F3000834601980AF033FC011C58460AF018FC3D
:102F4000011C50460AF014FC4B462E991861039858
:102F50000AF025FC2F99824602980AF020FC011CF9
:102F600050460AF005FC30998246381C0AF017FCDE
:102F70003199071C301C0AF012FC011C381C0AF0A5
:102F8000F7FB011C50460AF0F3FB2C99061C281C89
:102F90000AF005FC2D99051C201C0AF000FC011C00
:102FA000281C0AF0E5FB2B99041C01980AF0F7FB9A
:102FB000011C201C0AF0DCFB011C301C0AF0D8FBB1
:102FC0004B46586104239C461433E0449C46079BBF
:102FD000E144434500D07DE6339B059DDC68296ACA
:102FE00020680AF0C5FB049EA96B306060680AF097
:102FF000BFFB7060A068296D0AF0BAFBB060E068A2
:10300000A96E0AF0B5FB8023F0602069E958984664
:103010000AF0AEFB98233061E95860690AF0A8FB1A
:103020007061A069696A0AF0A3FBB061E069E96BAD
:103030000AF09EFBF061206A696D0AF099FB30622C
:10304000E96E606A0AF094FB84277062A06AE9590D
:103050000AF08EFB9C23B062E958E06A0AF088FB14
:10306000F062206BA96A0AF083FB3063606B296C05
:103070000AF07EFB7063A06BA96D0AF079FBB06368
:10308000E06B296F0AF074FBF0638826206CA95965
:103090000AF06EFB049B1864A023606CE9580AF0E8
:1030A00067FB049BE96A5864A06C0AF061FB049B0F
:1030B000696C9864E06C0AF05BFB049BE96DD86472
:1030C000206D0AF055FB049B696F1865606D0AF06E
:1030D0004FFB8C25049A059B5065A06D59590AF049
:1030E00047FBA423049A9065059AE06DD1580AF035
:1030F0003FFB049B059AD865116B206E0AF038FBE4
:10310000049B059A1866916C606E0AF031FB049B73
:10311000059A5866A06E116E0AF02AFB049B059A68
:103120009866E06E916F0AF023FB049B059AD866BF
:103130009023206FD1580AF01BFB049B059A186757
:10314000A823606FD1580AF013FB049B059A5867B7
:10315000A16F506B0AF00CFB049B059A9867E16F16
:10316000D06C0AF005FB4146049B059AD86761586C
:10317000506E0AF0FDFA4146049B059A5850E159F9
:10318000D06F0AF0F5FA049BD8519423059FA159FA
:10319000F8580AF0EDFA049B9851AC236159F8589D
:1031A0000AF0E6FA049B585199239B009D44F0BC19
:1031B000BB46B246A946A046F0BDC046F0B5DE46C5
:1031C00057464E4645460400E0B5436887B0580070
:1031D000A3684008590049080AF0CAFA2368590050
:1031E00049080AF0C5FA2369051C580063694008BC
:1031F000590049080AF0BCFAE368590049080AF086
:10320000B7FA011C281C0AF0B3FAE369051C580040
:10321000236A4008590049080AF0AAFAA36959002C
:1032200049080AF0A5FAA36A061C5800E36A400898
:10323000590049080AF09CFA636A590049080AF0E3
:1032400097FA011C301C0AF093FA636B071C5800B4
:10325000A36B4008590049080AF08AFA236B590009
:1032600049080AF085FA236C061C5800636C400874
:10327000590049080AF07CFAE36B590049080AF042
:1032800077FA011C301C0AF073FA061C011C381C6A
:103290000AF0BCFA002800D13E1C311C281C0AF0A0
:1032A000B5FA002800D12E1CE36C5800236D4008AD
:1032B000590049080AF05CFAA36C590049080AF061
:1032C00057FAA36D051C5800E36D400859004908E2
:1032D0000AF04EFA636D590049080AF049FA011CD8
:1032E000281C0AF045FA636E071C5800A36E4008BC
:1032F000590049080AF03CFA236E590049080AF0BF
:1033000037FA236F051C5800636F400859004908BD
:103310000AF02EFAE36E590049080AF029FA011C56
:10332000281C0AF025FAE36F804658008023E158F4
:103330004008490049080AF01BFAA36F59004908E0
:103340000AF016FA8823051CE0580433E1584000BF
:103350004900490840080AF00BFA8423E158490063
:1033600049080AF005FA011C281C0AF001FA051C9C
:10337000011C40460AF04AFA002800D14546291CA3
:10338000381C0AF043FA002800D13D1C291C301CCF
:103390000AF03CFA002800D1351CC0232100E5507A
:1033A00001AABA3B02A8A83104930294FDF7F4F9EC
:1033B0000121C422019B98260B405B428B430133C1
:1033C000A354343A9246002250469C27225094320D
:1033D000A1509346923AA2510132E2519D32944655
:1033E00060469C3A2250A03291469F3A90464A4607
:1033F00040462300A05048461832A258903392000D
:103400009A1815682550404610606046B82220582A
:10341000A2588046604692009A181568255040468A
:103420001060B422E059A258844692009A1810689D
:103430005D46E05160461060B022A258A759920044
:103440009A181068A0511760AC225846A258265806
:1034500092009A18106860511660A822A25855462A
:1034600092009B1852461868A25860511A60C523F2
:10347000E15407B0F0BCBB46B246A946A046F0BD39
:10348000C023002210B5C25000220433C2520B6880
:10349000040003604B6843608B688360CB68C36043
:1034A0000B6903614B6943618B698361CB69C361BC
:1034B0000B6A03624B6A43628B6A8362CB6AC362A4
:1034C0000B6B03634B6B43638B6B8363CB6BC3638C
:1034D0000B6C03644B6C43648B6C8364CB6CC36474
:1034E0000B6D03654B6D43658B6D8365CB6DC3655C
:1034F0000B6E03664B6E43668B6E8366CB6EC36644
:103500000B6F03674B6F43678B6F8367CB6FC3672B
:103510008023CA58C2500433CA58C2500433CA5810
:10352000C2500433CA58C250FFF748FE200010BDF5
:10353000F0B5DE464E4645465746E0B5214C91462D
:10354000A5443AAA94460A0031931F4B3B9063442A
:103550001B091B013A919846D3AB13CA13C313CA74
:1035600013C31268D3A91A60184B194A1B6847A8DD
:103570000493184B47AC1B680193174B1B680593CA
:103580000093049BFEF786FF47ABD3934B46D4933F
:1035900047ABD5933AAA8323944686201B01634404
:1035A0001B68C0004044A2AAD3A9D6930990FFF794
:1035B0002BF96BAB089343460A934B463094A146D4
:1035C0001C000BE014F7FFFF4703000064200320FA
:1035D0000AE81C415C200320602003204B464E4635
:1035E0001B68B76F0793089B494640CB48464A463D
:1035F0000893A823896C006E9569126B059106905B
:10360000E158301C04920AF0CAF88C238246E15833
:10361000381C0AF0C4F8011C50460AF0A9F8216FC2
:10362000824606980AF0BBF8616D834605980AF059
:10363000B6F8011C58460AF09BF8011C50460AF0E7
:1036400097F8A16B824604980AF0A9F8E1698346CD
:10365000281C0AF0A4F8011C58460AF089F82168D1
:10366000834607980AF09BF8011C58460AF080F838
:10367000011C50460AF07CF843461860AC23301C0D
:10368000E1580AF08CF890238246E158381C0AF081
:1036900086F8011C50460AF06BF8616F8246069866
:1036A0000AF07DF8A16D834605980AF078F8011CB0
:1036B00058460AF05DF8011C50460AF059F8E16BD3
:1036C000824604980AF06BF8216A8346281C0AF0A7
:1036D00066F8011C58460AF04BF861688346079863
:1036E0000AF05DF8011C58460AF042F8011C5046E9
:1036F0000AF03EF843465860B023301CE1580AF007
:103700004EF894238246E158381C0AF048F8011C10
:1037100050460AF02DF8A16F824606980AF03FF84D
:10372000E16D834605980AF03AF8011C58460AF004
:103730001FF8011C50460AF01BF8216C82460498C1
:103740000AF02DF8616A8346281C0AF028F8011C4B
:1037500058460AF00DF8A168834607980AF01FF84A
:10376000011C58460AF004F8011C50460AF000F803
:1037700043469860B423301CE1580AF010F89823AF
:103780008246E158381C0AF00AF8011C504609F03C
:10379000EFFFE16F824606980AF001F8216E83463A
:1037A000059809F0FCFF011C584609F0E1FF011CD7
:1037B000504609F0DDFF616C8246049809F0EFFF86
:1037C000A16A8346281C09F0EAFF011C584609F04B
:1037D000CFFFE1688346079809F0E1FF011C5846D6
:1037E00009F0C6FF011C504609F0C2FF4346D860ED
:1037F000B823301CE15809F0D2FF9C238246E158DF
:10380000381C09F0CCFF011C504609F0B1FF8023A1
:103810008246E158069809F0C2FF616E834605981A
:1038200009F0BDFF011C584609F0A2FF011C5046DB
:1038300009F09EFFA16C8246049809F0B0FFE16A8E
:103840008346281C09F0ABFF011C584609F090FF85
:1038500021698346079809F0A2FF011C584609F028
:1038600087FF011C504609F083FF43461861BC23C3
:10387000301CE15809F093FFA0238246E158381C20
:1038800009F08DFF011C504609F072FF8423824627
:10389000E158069809F083FFA16E8346059809F068
:1038A0007EFF011C584609F063FF011C504609F0D9
:1038B0005FFFE16C8246049809F071FF216B83463B
:1038C000281C09F06CFF011C584609F051FF616982
:1038D0008346079809F063FF011C584609F048FF2A
:1038E000011C504609F044FF4346E16E58610598BB
:1038F00009F055FF88238246E158069809F04FFFEA
:10390000011C504609F034FFA4238246E158381CBC
:1039100009F045FFC023071CE158301C09F03FFFA8
:10392000011C381C09F024FF011C504609F020FF3F
:10393000616B061C281C09F032FF216D051C0498E0
:1039400009F02DFF011C281C09F012FFA169051CBC
:10395000079809F024FF011C281C09F009FF011C2D
:10396000301C09F005FF4346986104239C46183338
:10397000E1449C464DABE044994500D02EE60A9BBD
:10398000A146D8249846A427A4004444BF00474435
:1039900020000999FFF774FD210090223800C82407
:1039A0000AF084F8FC21A400444489004144182210
:1039B00020000AF07BF8CE2081218000C90041441C
:1039C000182240440AF072F88422D423D2004244E0
:1039D00012689B0043441A60D523874A45464244F7
:1039E00012889B004344FE211A8000232268B035D0
:1039F0009200AA188905116093611363936413669A
:103A00009367C92292004244126844469200AA1861
:103A1000136091611363936413669367CA229200E3
:103A20004244126806269200AA181360936111633B
:103A3000936413669367CB22920042441268062077
:103A40009200AA18136093611363916413669367DD
:103A5000CC229200424412689200AA18136093612B
:103A60001363936411669367CD22920042441268F7
:103A70009200AA1813609361136393641366A823DA
:103A80005B009B46916742465946E4182033434405
:103A9000A660E660266153508022920042444B3972
:103AA0006260924604933A0006230294FF3901961D
:103AB0000095FDF7DFFA42465946049BA660E66092
:103AC0002661535053464B3963603A0006230294F3
:103AD000062001960095FF39FDF7D0FD43461B688F
:103AE0008C2206934346DB69D3AC079343469B6B1A
:103AF000089343465B6D099343461B6F0A93434605
:103B00009B5804320B9343465B680C9343461B6AF5
:103B10000D934346DB6B0E9343469B6D0F934346D9
:103B20005B6F109343469B580432119343469B6846
:103B3000129343465B6A139343461B6C14934346AC
:103B4000DB6D159343469B6F169343469B58043297
:103B500017934346DB68189343469B6A1993434681
:103B60005B6C1A9343461B6E1B934346DB6F1C939F
:103B700043469B58183A1D9343461B691E93434680
:103B8000DB6A1F9343469B6C209343465B6E2193F5
:103B900043469B581C32229343469B58183A239322
:103BA00043465B69249343461B6B25934346DB6C7A
:103BB000269343469B6E279343469B581C3228937B
:103BC00043469B58183A299343469B692A93434698
:103BD0005B6B2B9343461B6D2C934346DB6E2D93FF
:103BE00043469B581C322E9343469B58A8462F931E
:103BF0004B46329302E0C0462404000043461F684F
:103C00005B6842469946434641469B68D2680E69C6
:103C10004D69079849460493059209F0C0FD04993F
:103C20008246089809F0BBFD011C504609F0A0FD32
:103C3000391C8246069809F0B2FD011C504609F075
:103C400097FD311C82460A9809F0A9FD291C83467C
:103C50000B9809F0A4FD011C584609F089FD05994F
:103C60008346099809F09BFD011C584609F080FD28
:103C7000011C504609F07CFD494620600D9809F072
:103C80008EFD049982460E9809F089FD011C50466C
:103C900009F06EFD391C82460C9809F080FD011C6C
:103CA000504609F065FD311C8246109809F077FDF9
:103CB000291C8346119809F072FD011C584609F031
:103CC00057FD059983460F9809F069FD011C584678
:103CD00009F04EFD011C504609F04AFD494660605E
:103CE000139809F05CFD04998246149809F057FD79
:103CF000011C504609F03CFD391C8246129809F01F
:103D00004EFD011C504609F033FD311C82461698C9
:103D100009F045FD291C8346179809F040FD011C58
:103D2000584609F025FD05998346159809F037FD99
:103D3000011C584609F01CFD011C504609F018FDF5
:103D40004946A060199809F02AFD049982461A98FC
:103D500009F025FD011C504609F00AFD391C824678
:103D6000189809F01CFD011C504609F001FD311C9A
:103D700082461C9809F013FD291C83461D9809F002
:103D80000EFD011C584609F0F3FC059983461B986B
:103D900009F005FD011C584609F0EAFC011C5046DB
:103DA00009F0E6FC4946E0601F9809F0F8FC049928
:103DB0008246209809F0F3FC011C504609F0D8FC1B
:103DC000391C82461E9809F0EAFC011C504609F095
:103DD000CFFC311C8246229809F0E1FC291C834665
:103DE000239809F0DCFC011C584609F0C1FC059938
:103DF0008346219809F0D3FC011C584609F0B8FC11
:103E0000011C504609F0B4FC49462061259809F090
:103E1000C6FC04998246269809F0C1FC011C504654
:103E200009F0A6FC391C8246249809F0B8FC011C54
:103E3000504609F09DFC311C8246289809F0AFFCE1
:103E4000291C8346299809F0AAFC011C584609F050
:103E50008FFC05998346279809F0A1FC011C584660
:103E600009F086FC011C504609F082FC494660615D
:103E70002B9809F094FC049981462C9809F08FFC4A
:103E8000011C484609F074FC391C81462A9809F047
:103E900086FC011C484609F06BFC311C071C2E985F
:103EA00009F07DFC291C061C2F9809F078FC011CE8
:103EB000301C09F05DFC0599051C2D9809F06FFC7C
:103EC000011C281C09F054FC011C381C09F050FC92
:103ED00018239C46A061FDAB1C34E044A34200D0F3
:103EE0008CE6329BD49A9946D39BD599D69CD79D84
:103EF000D89ED99F06930792DA9BDB9A0891099482
:103F0000DC99DD9C0A950B96DE9DDF9E0C970D9348
:103F1000E09FE19B0E92E29A0F91109411951296F8
:103F2000139714931592E399E49CE59DE69EE79F11
:103F3000E89BE99A16911794EA99EB9C18951996C3
:103F4000EC9DED9E1A971B93EE9FEF9B1C921D918B
:103F5000F09AF1991E94F29C209621972293239235
:103F6000249125941F95F39DF49EF59FF79AF69B57
:103F7000F899F99C26952796FA9DFB9E2897FC9F19
:103F80002A923A9A29932B912C942D952E962F971D
:103F9000D3AB32CA32C332CA32C31168D3AC196050
:103FA000FD49FE4B09681B680191FD49FD4A0968FE
:103FB0002000009141A9FDF7CDFF319F419938685C
:103FC00009F0D3FB42998346786809F0CEFB439908
:103FD0008246B86809F0C9FB4499041CF86809F0E6
:103FE000C4FB4599051C386909F0BFFB4699061CBE
:103FF000786909F0BAFB071C011C2A9809F0CFFB6D
:10400000311C8046239809F0CAFB011C404609F088
:10401000AFFB291C80461C9809F0C1FB011C4046DF
:1040200009F0A6FB211C8046159809F0B8FB514603
:1040300004900E9809F0B3FB011C049809F098FB5A
:1040400059460490079809F0AAFB011C049809F04E
:104050008FFB011C404609F08BFB3A9A516809F02E
:1040600087FB391C04902B9809F099FB311C804682
:10407000249809F094FB011C404609F079FB291CA7
:1040800080461D9809F08BFB011C404609F070FB2F
:10409000211C8046169809F082FB514605900F9826
:1040A00009F07DFB011C059809F062FB594605905B
:1040B000089809F074FB011C059809F059FB011CD4
:1040C000404609F055FB3A9A916809F051FB391CBA
:1040D00005902C9809F063FB311C8046259809F067
:1040E0005EFB011C404609F043FB291C80461E98DC
:1040F00009F055FB011C404609F03AFB211C8046A3
:10410000179809F04CFB51463190109809F047FB85
:10411000011C319809F02CFB59463190099809F09F
:104120003EFB011C319809F023FB011C404609F0BD
:104130001FFB3A9AD16809F01BFB391C31902D986E
:1041400009F02DFB311C8046269809F028FB011C44
:10415000404609F00DFB291C80461F9809F01FFB03
:10416000011C404609F004FB211C8046189809F008
:1041700016FB51463290119809F011FB011C329840
:1041800009F0F6FA594632900A9809F008FB011C2A
:10419000329809F0EDFA011C404609F0E9FA3A9A22
:1041A000116909F0E5FA391C32902E9809F0F7FAF6
:1041B000311C8046279809F0F2FA011C404609F0AC
:1041C000D7FA291C8046209809F0E9FA011C4046DC
:1041D00009F0CEFA211C8046199809F0E0FA514600
:1041E0003390129809F0DBFA011C339809F0C0FAF9
:1041F000594633900B9809F0D2FA011C339809F014
:10420000B7FA011C404609F0B3FA3A9A516909F02D
:10421000AFFA51463390139809F0C1FA211C804639
:104220001A9809F0BCFA011C404609F0A1FA594657
:1042300080460C9809F0B3FA011C404609F098FA40
:10424000311C8046289809F0AAFA391C34902F981E
:1042500009F0A5FA011C349809F08AFA291C349057
:10426000219809F09CFA011C349809F081FA011C8C
:10427000404609F07DFA3A9A916909F079FA391CB9
:104280008046299809F08BFA311C071C229809F006
:1042900086FA011C381C09F06BFA291C061C1B98B5
:1042A00009F07DFA011C301C09F062FA211C051C82
:1042B000149809F074FA5146041C0D9809F06FFA2D
:1042C000011C201C09F054FA5946041C069809F0F8
:1042D00066FA011C201C09F04BFA011C281C09F08D
:1042E00047FA3A9AD3AC116809F042FA3B9B049A18
:1042F00018605A60059A9A60319ADA60329A1A61A7
:10430000339A5A6142469A614B461B684A46A293C9
:104310004B465B68A3934B469B68A4934B46DB6874
:10432000A5934B461B69A6934B465B69A7934B46E7
:104330009B69A8934B46DB69A9934B461B6AAA93DA
:104340004B465B6AAB934B469B6AAC934B46DB6A2E
:10435000AD934B461B6BAE934B465B6BAF934B469B
:104360009B6BB0934B46DB6BB1934B461B6CB2938C
:104370004B465B6CB3934B469B6CB4934B46DB6CE8
:10438000B5934B461B6DB6934B465B6DB7934B464F
:104390009B6DB8934B4607E05C200320642003200C
:1043A000602003200AE81C41DB6DB9934B461B6E6D
:1043B000BA934B465B6EBB934B469B6EBC934B468E
:1043C000DB6EBD934B461B6FBE934B465B6FBF933B
:1043D0004B469B6FC0934B46DB6FC1938023D358F2
:1043E000C2938423D358C3938823D358C4938C2374
:1043F000D358C5939023D358C6939423D358C793C7
:104400009823D358C8939C23D358C993A023D35837
:10441000CA93A423D358CB93A823D358CC93AC23CB
:10442000D358CD93B023D358CE93B423D358CF933E
:10443000B823D358D093BC23D358D193C023D35897
:10444000D293309B3092984643461F685B68424641
:104450009946434641469B68D2680E694D690D985E
:1044600049460493059209F09AF9049982461498F2
:1044700009F095F9011C504609F07AF9391C824679
:10448000069809F08CF9011C504609F071F9311CAD
:104490008246229809F083F9291C8346299809F05D
:1044A0007EF9011C584609F063F9059983461B986B
:1044B00009F075F9011C584609F05AF9011C5046DB
:1044C00009F056F9494620600E9809F068F90499F8
:1044D0008246159809F063F9011C504609F048F925
:1044E000391C8246079809F05AF9011C504609F018
:1044F0003FF9311C8246239809F051F9291C834663
:104500002A9809F04CF9011C584609F031F905992F
:1045100083461C9809F043F9011C584609F028F914
:10452000011C504609F024F9494660600F9809F0D3
:1045300036F904998246169809F031F9011C504663
:1045400009F016F9391C8246089809F028F9011C6F
:10455000504609F00DF9311C8246249809F01FF9E4
:10456000291C83462B9809F01AF9011C584609F0BA
:10457000FFF8059983461D9809F011F9011C58466A
:1045800009F0F6F8011C504609F0F2F84946A0601F
:10459000109809F004F904998246179809F0FFF879
:1045A000011C504609F0E4F8391C8246099809F0CC
:1045B000F6F8011C504609F0DBF8311C82462598BC
:1045C00009F0EDF8291C83462C9809F0E8F8011C45
:1045D000584609F0CDF8059983461E9809F0DFF892
:1045E000011C584609F0C4F8011C504609F0C0F8F7
:1045F0004946E060119809F0D2F80499824618986B
:1046000009F0CDF8011C504609F0B2F8391C824679
:104610000A9809F0C4F8011C504609F0A9F8311CA9
:104620008246269809F0BBF8291C83462D9809F08C
:10463000B6F8011C584609F09BF8059983461F9867
:1046400009F0ADF8011C584609F092F8011C5046DB
:1046500009F08EF849462061129809F0A0F80499F3
:104660008246199809F09BF8011C504609F080F821
:10467000391C82460B9809F092F8011C504609F04B
:1046800077F8311C8246279809F089F8291C83465F
:104690002E9809F084F8011C584609F069F805992C
:1046A0008346209809F07BF8011C584609F060F811
:1046B000011C504609F05CF849466061139809F006
:1046C0006EF8049981461A9809F069F8011C484669
:1046D00009F04EF8391C81460C9809F060F8011C6D
:1046E000484609F045F8311C071C289809F057F88E
:1046F000291C061C2F9809F052F8011C301C09F0E7
:1047000037F80599051C219809F049F8011C281C67
:1047100009F02EF8011C381C09F02AF818239C46D1
:10472000FFABA06114331C34E044A34200D08BE6FD
:10473000309BA2AD99463C93C4234C46C8464B449B
:10474000089307944246D268434641469146424602
:104750009E694C68096892685F691B690491301C06
:10476000FD990693059209F01AF8F6998246381CCD
:1047700009F015F8011C504608F0FAFFEF9982463F
:10478000069809F00CF8E8998346484609F007F8BE
:10479000011C584608F0ECFF011C504608F0E8FFE9
:1047A000E1998246059808F0FAFFDA998346201CC1
:1047B00008F0F5FF011C584608F0DAFFD39983464C
:1047C000049808F0ECFF011C584608F0D1FF011CCA
:1047D000504608F0CDFF011C286808F0C6FF28608D
:1047E000FE99301C08F0DBFFF7998246381C08F070
:1047F000D6FF011C504608F0BBFFF0998246069890
:1048000008F0CDFFE9998346484608F0C8FF011C2F
:10481000584608F0ADFF011C504608F0A9FFE29988
:104820008246059808F0BBFFDB998346201C08F000
:10483000B6FF011C584608F09BFFD49983460498A4
:1048400008F0ADFF011C584608F092FF011C5046CD
:1048500008F08EFF011C686808F087FFFF99686008
:10486000301C08F09CFFF8998246381C08F097FF2E
:10487000011C504608F07CFFF1998246069808F02A
:104880008EFFEA998346484608F089FF011C584686
:1048900008F06EFF011C504608F06AFFE39982465B
:1048A000059808F07CFFDC998346201C08F077FF10
:1048B000011C584608F05CFFD5998346049808F01F
:1048C0006EFF011C584608F053FF011C504608F0CB
:1048D0004FFF011CA86808F048FFFFAB5968A860AB
:1048E000301C043308F05BFFF9998246381C08F04D
:1048F00056FF011C504608F03BFFF299824606988D
:1049000008F04DFFEB998346484608F048FF011C2C
:10491000584608F02DFF011C504608F029FFE49985
:104920008246059808F03BFFDD998346201C08F07D
:1049300036FF011C584608F01BFFD69983460498A1
:1049400008F02DFF011C584608F012FF011C5046CC
:1049500008F00EFF011CE86808F007FFFFAB99683C
:10496000E860301C083308F01AFFFA998246381CB8
:1049700008F015FF011C504608F0FAFEF399824634
:10498000069808F00CFFEC998346484608F007FFAC
:10499000011C584608F0ECFE011C504608F0E8FEE9
:1049A000E5998246059808F0FAFEDE998346201CB8
:1049B00008F0F5FE011C584608F0DAFED799834648
:1049C000049808F0ECFE011C584608F0D1FE011CCA
:1049D000504608F0CDFE011C286908F0C6FEFFAB6A
:1049E000D9682861301C0C3308F0D9FEFB99824647
:1049F000381C08F0D4FE011C504608F0B9FEF499AA
:104A00008246069808F0CBFEED998346484608F0AA
:104A1000C6FE011C584608F0ABFE011C504608F0CB
:104A2000A7FEE6998246059808F0B9FEDF9983460D
:104A3000201C08F0B4FE011C584608F099FED899D5
:104A40008346049808F0ABFE011C584608F090FE1F
:104A5000011C504608F08CFE011C686908F085FEB8
:104A6000EE996861484608F09AFEF59981460698E5
:104A700008F095FE011C484608F07AFEFC99814634
:104A8000381C08F08CFEFFAB1969071C301C103372
:104A900008F085FE011C381C08F06AFE011C48461F
:104AA00008F066FEE099061C201C08F078FEE799E5
:104AB000041C059808F073FE011C201C08F058FE29
:104AC000D999041C049808F06AFE011C201C08F007
:104AD0004FFE011C301C08F04BFE011CA86908F0B9
:104AE00044FE1C239C46089BE044A8611C35984565
:104AF00000D027E6079BA29A99461A60A39A5A60AB
:104B0000A49A9A60A59ADA60A69A1A61A79A5A613D
:104B1000A89A9A61A99ADA61AA9A1A62AB9A5A6219
:104B2000AC9A9A62AD9ADA62AE9A1A63AF9A5A63F5
:104B3000B09A9A63B19ADA63B29A1A64B39A5A64D1
:104B4000B49A9A64B59ADA64B69A1A65B79A5A65AD
:104B5000B89A9A65B99ADA65BA9A1A66BB9A5A6689
:104B6000BC9A9A66BD9ADA66BE9A1A67BF9A5A6765
:104B7000C09A9A67C19ADA674A468023C299D1508F
:104B8000C3990433D150C4990433D150C599043327
:104B9000D150C6990433D150C7990433D150C89924
:104BA0000433D150C9990433D150CA990433D15038
:104BB000CB990433D150CC990433D150CD990433DF
:104BC000D150CE990433D150CF990433D150D099DC
:104BD0000433D150D1990433D150D2990433D150F8
:104BE0003AAA9446504BA2AA63441B6813CB13C243
:104BF0004E4BD3AC63441B6807CB07C43A9B3B9D29
:104C000000934B4B28006344A2A91B68D3AAFDF76D
:104C10007FF82B00D3AA23CB23C213CB13C23AA90C
:104C20001B688C4613603EAA11003F4B63441B680F
:104C300031CB31C13D4BA2A963441B6831CB31C19B
:104C40003B4BD3A963441B6871A80093A2ABFDF74B
:104C5000C5FAD3AB1C000793719BA0460993789BC0
:104C600010937F9B1793869B1E938D9B2593949BFC
:104C70002C939B9B3393729B0A93799B1193809BFC
:104C80001893879B1F938E9B2693959B2D939C9B9C
:104C90003493739B0B937A9B1293819B1993889BFC
:104CA00020938F9B2793969B2E939D9B3593749B6C
:104CB0000C937B9B1393829B1A93899B2193909BCC
:104CC0002893979B2F939E9B3693759B0D937C9B6C
:104CD0001493839B1B938A9B2293919B2993989B6C
:104CE00030939F9B3793769B0E937D9B1593849B6C
:104CF0001C938B9B2393929B2A93999B3193A09B0C
:104D00003893779B0F937E9B1693859B1D938C9B6B
:104D10002493939B2B939A9B3293A19B39934B465D
:104D20003D933C9B994605E02808000038080000A8
:104D30003C080000484649464A464B468669096990
:104D40001B6855689468D268476906913398311C8E
:104D50000592049308F023FD391C82462C9808F034
:104D60001EFD011C504608F003FD06998246259859
:104D700008F015FD059983461E9808F010FD011CEA
:104D8000584608F0F5FC011C504608F0F1FC211CC7
:104D90008246179808F003FD291C8346109808F0F6
:104DA000FEFC011C584608F0E3FC04998346099870
:104DB00008F0F5FC011C584608F0DAFC011C5046CE
:104DC00008F0D6FC4346311C1860349808F0E7FC24
:104DD000391C82462D9808F0E2FC011C504608F070
:104DE000C7FC06998246269808F0D9FC05998346A7
:104DF0001F9808F0D4FC011C584608F0B9FC011CAF
:104E0000504608F0B5FC211C8246189808F0C7FCF3
:104E1000291C8346119808F0C2FC011C584608F072
:104E2000A7FC049983460A9808F0B9FC011C58466F
:104E300008F09EFC011C504608F09AFC4346311CC9
:104E40005860359808F0ABFC391C82462E9808F063
:104E5000A6FC011C504608F08BFC06998246279858
:104E600008F09DFC05998346209808F098FC011CE9
:104E7000584608F07DFC011C504608F079FC211CC6
:104E80008246199808F08BFC291C8346129808F07A
:104E900086FC011C584608F06BFC049983460B986D
:104EA00008F07DFC011C584608F062FC011C5046CD
:104EB00008F05EFC4346311C9860369808F06FFCA1
:104EC000391C82462F9808F06AFC011C504608F0F5
:104ED0004FFC06998246289808F061FC05998346A4
:104EE000219808F05CFC011C584608F041FC011CAC
:104EF000504608F03DFC211C82461A9808F04FFCF1
:104F0000291C8346139808F04AFC011C584608F0F7
:104F10002FFC049983460C9808F041FC011C58466C
:104F200008F026FC011C504608F022FC4346311CC8
:104F3000D860379808F033FC391C8246309808F066
:104F40002EFC011C504608F013FC06998246299855
:104F500008F025FC05998346229808F020FC011CE6
:104F6000584608F005FC011C504608F001FC211CC5
:104F700082461B9808F013FC291C8346149808F0FD
:104F80000EFC011C584608F0F3FB049983460D986B
:104F900008F005FC011C584608F0EAFB011C5046CD
:104FA00008F0E6FB4346311C1861389808F0F7FB1F
:104FB000391C8246319808F0F2FB011C504608F07B
:104FC000D7FB069982462A9808F0E9FB05998346A3
:104FD000239808F0E4FB011C584608F0C9FB011CAB
:104FE000504608F0C5FB211C82461C9808F0D7FBF0
:104FF000291C8346159808F0D2FB011C584608F07E
:10500000B7FB049983460E9808F0C9FB011C58466B
:1050100008F0AEFB011C504608F0AAFB4346059978
:105020005861249808F0BBFB069982462B9808F03B
:10503000B6FB011C504608F09BFB391C8246329897
:1050400008F0ADFB311C071C399808F0A8FB011CC7
:10505000381C08F08DFB011C504608F089FB291C08
:10506000061C169808F09BFB211C051C1D9808F0D7
:1050700096FB011C281C08F07BFB0499041C0F986C
:1050800008F08DFB011C201C08F072FB011C301C79
:1050900008F06EFB434698611C239C46089BE14444
:1050A000E044994500D045E6A2ACA046F6AB069395
:1050B000DAAB3C940893079B33981A68596D0492B5
:1050C000069A8946D669196FDD690591311C9C6B7A
:1050D000176808F064FB391C82462C9808F05FFBC7
:1050E000011C504608F044FB05998246259808F0BB
:1050F00056FB494683461E9808F051FB011C584652
:1051000008F036FB011C504608F032FB211C824699
:10511000179808F044FB291C8346109808F03FFBC1
:10512000011C584608F024FB04998346099808F0AE
:1051300036FB011C584608F01BFB011C504608F0CA
:1051400017FB41460860311C349808F028FB391CD5
:1051500082462D9808F023FB011C504608F008FBFE
:1051600005998246269808F01AFB494683461F98FF
:1051700008F015FB011C584608F0FAFA011C5046CD
:1051800008F0F6FA211C8246189808F008FB291C42
:105190008346119808F003FB011C584608F0E8FA12
:1051A000049983460A9808F0FAFA011C584608F058
:1051B000DFFA011C504608F0DBFA41464860311C1A
:1051C000359808F0ECFA391C82462E9808F0E7FA78
:1051D000011C504608F0CCFA05998246279808F041
:1051E000DEFA49468346209808F0D9FA011C584651
:1051F00008F0BEFA011C504608F0BAFA211C82469B
:10520000199808F0CCFA291C8346129808F0C7FABE
:10521000011C584608F0ACFA049983460B9808F034
:10522000BEFA011C584608F0A3FA011C504608F0CB
:105230009FFA41468860311C369808F0B0FA391C54
:1052400082462F9808F0ABFA011C504608F090FAFD
:1052500005998246289808F0A2FA49468346219883
:1052600008F09DFA011C584608F082FA011C5046CD
:1052700008F07EFA211C82461A9808F090FA291C40
:105280008346139808F08BFA011C584608F070FA10
:10529000049983460C9808F082FA011C584608F0DD
:1052A00067FA011C504608F063FA4146C860311C99
:1052B000379808F074FA391C8246309808F06FFA73
:1052C000011C504608F054FA05998246299808F0C6
:1052D00066FA49468346229808F061FA011C58464E
:1052E00008F046FA011C504608F042FA211C82469A
:1052F0001B9808F054FA291C8346149808F04FFABA
:10530000011C584608F034FA049983460D9808F0B9
:1053100046FA011C584608F02BFA011C504608F0CA
:1053200027FA41460861311C389808F038FA391CD0
:105330008246319808F033FA011C504608F018FAFA
:10534000059982462A9808F02AFA49468346239806
:1053500008F025FA011C584608F00AFA011C5046CC
:1053600008F006FA211C82461C9808F018FA291C3D
:105370008346159808F013FA011C584608F0F8F90E
:10538000049983460E9808F00AFA011C584608F062
:10539000EFF9011C504608F0EBF9434649465861C5
:1053A000249808F0FCF9059981462B9808F0F7F944
:1053B000011C484608F0DCF9391C8146329808F097
:1053C000EEF9311C071C399808F0E9F9011C381C6A
:1053D00008F0CEF9011C484608F0CAF9291C061C41
:1053E000169808F0DCF9211C051C1D9808F0D7F967
:1053F000011C281C08F0BCF90499041C0F9808F043
:10540000CEF9011C201C08F0B3F9011C301C08F077
:10541000AFF9414688611C218C46069A079B0432ED
:105420000692089A04330793E0449A4200D042E679
:105430003AAA94463D9B764A9946754B624463442A
:105440001B6812681B68D3AC0793714B63441B68DD
:10545000DB6908936E4B63441B689B6B09936C4B31
:1054600063441B685B6D0A93694B63441B681B6F45
:105470000B938C23D358664A0C93654B6244634468
:105480001B685B680D93624B63441B681B6A0E9339
:105490005F4B63441B68DB6B0F935D4B63441B687E
:1054A0009B6D10935A4B63441B685B6F126811939A
:1054B0009023D358564A1293554B624463441B6859
:1054C00012689B681393524B63441B685B6A149386
:1054D0004F4B63441B681B6C15934D4B63441B6817
:1054E000DB6D16934A4B63441B689B6F17939423A1
:1054F000D358474A1893464B624463441B68DB68A1
:105500001993434B63441B689B6A1A93404B634453
:105510001B685B6C1B933E4B63441B6812681B6EDD
:105520001C933B4B63441B68DB6F1D939823D3583C
:10553000374A1E93364B624463441B6812681B69EA
:105540001F93334B63441B68DB6A2093304B6344E7
:105550001B689B6C21932E4B63441B685B6E2293EC
:105560008023D3582A4A23939C2362441268D35839
:10557000274A2493264B624463441B685B69259346
:10558000234B63441B681B6B2693214B12686344B7
:105590001B68DB6C27931E4B63441B689B6E289330
:1055A0008423D3581A4A2993A02362441268D358FB
:1055B000174A2A93164B624463441B6812689B691E
:1055C0002B93134B63441B685B6B2C93104B63440E
:1055D0001B681B6D2D930E4B63441B68DB6E2E9373
:1055E0008823D3580A4A2F93A42362441268D358BD
:1055F00022003093074B63441B689846D3AB069355
:105600009023434431934B4644469046329303E003
:10561000340800002C0800006368E2689946A3681B
:10562000089948460493059208F0B9F8099982460A
:10563000049808F0B4F8011C504608F099F827685F
:1056400082460799381C08F0AAF8011C504608F059
:105650008FF8266982460B99301C08F0A0F865691E
:1056600083460C99281C08F09AF8011C584608F04B
:105670007FF80A998346059808F091F8011C58466E
:1056800008F076F8011C504608F072F841460860B0
:105690000E99484608F083F80F998246049808F05E
:1056A0007EF8011C504608F063F80D998246381CBC
:1056B00008F075F8011C504608F05AF81199824616
:1056C000301C08F06CF812998346281C08F067F823
:1056D000011C584608F04CF810998346059808F0CC
:1056E0005EF8011C584608F043F8011C504608F0CB
:1056F0003FF8414648601499484608F050F815991B
:105700008246049808F04BF8011C504608F030F827
:1057100013998246381C08F042F8011C504608F0E4
:1057200027F817998246301C08F039F818998346F3
:10573000281C08F034F8011C584608F019F816998E
:105740008346059808F02BF8011C584608F010F81D
:10575000011C504608F00CF8414688601A994846EA
:1057600008F01DF81B998246049808F018F8011CEF
:10577000504607F0FDFF19998246381C08F00FF8D3
:10578000011C504607F0F4FF1D998246301C08F0BA
:1057900006F81E998346281C08F001F8011C58469B
:1057A00007F0E6FF1C998346059807F0F8FF011CF7
:1057B000584607F0DDFF011C504607F0D9FF41466F
:1057C000C8602099484607F0EAFF2199824604986C
:1057D00007F0E5FF011C504607F0CAFF1F998246FB
:1057E000381C07F0DCFF011C504607F0C1FF23996D
:1057F0008246301C07F0D3FF24998346281C07F00B
:10580000CEFF011C584607F0B3FF22998346059846
:1058100007F0C5FF011C584607F0AAFF011C5046BF
:1058200007F0A6FF414608612699484607F0B7FFF2
:1058300027998246049807F0B2FF011C504607F0F2
:1058400097FF25998246381C07F0A9FF011C504696
:1058500007F08EFF29998246301C07F0A0FF2A9995
:105860008346281C07F09BFF011C584607F080FF69
:1058700028998346059807F092FF011C584607F0C7
:1058800077FF011C504607F073FF43462C9958617F
:10589000484607F084FF2D998146049807F07FFF62
:1058A000011C484607F064FF2B998146381C07F01D
:1058B00076FF011C484607F05BFF2F99071C301C40
:1058C00007F06DFF3099061C281C07F068FF011CCB
:1058D000301C07F04DFF2E99051C059807F05FFF5F
:1058E000011C281C07F044FF011C381C07F040FF76
:1058F000434698611C239C46319B1834E044A342E4
:1059000000D089E6F6AB05933C9CDAAB3193069B5D
:105910000899DA691F6891469A6B484690465A6D15
:105920001E6F0492059A20CA059207F038FF099964
:105930008246404607F033FF011C504607F018FF2F
:1059400007998246381C07F02AFF011C504607F0D1
:105950000FFF0B998246301C07F021FF0C998346FC
:10596000281C07F01CFF011C584607F001FF0A998C
:105970008346049807F013FF011C584607F0F8FE11
:10598000011C504607F0F4FE011C206807F0F0FEF1
:105990000E992060484607F002FF0F998246404664
:1059A00007F0FDFE011C504607F0E2FE0D9982460D
:1059B000381C07F0F4FE011C504607F0D9FE11997F
:1059C0008246301C07F0EBFE12998346281C07F034
:1059D000E6FE011C584607F0CBFE1099834604985A
:1059E00007F0DDFE011C584607F0C2FE011C5046C0
:1059F00007F0BEFE011C606807F0BAFE18996060EF
:105A0000281C07F0CCFE17998246301C07F0C7FE11
:105A1000011C504607F0ACFE16998246049807F028
:105A2000BEFE011C504607F0A3FE1499824648466C
:105A300007F0B5FE15998346404607F0B0FE011CFD
:105A4000584607F095FE13998346381C07F0A7FEC9
:105A5000011C584607F08CFE011C504607F088FEDA
:105A6000011CA06807F084FE1E99A060281C07F0A6
:105A700096FE1D998246301C07F091FE011C50468F
:105A800007F076FE1C998246049807F088FE011CF8
:105A9000504607F06DFE1B998246404607F07FFE98
:105AA0001A998346484607F07AFE011C584607F0CB
:105AB0005FFE19998346381C07F071FE011C584699
:105AC00007F056FE011C504607F052FE011CE0682C
:105AD00007F04EFE2099E060484607F060FE2199ED
